{
  "contractName": "MultisendBase",
  "abi": [
    {
      "constant": false,
      "inputs": [],
      "name": "renounceWhitelistAdmin",
      "outputs": [],
      "payable": false,
      "stateMutability": "nonpayable",
      "type": "function"
    },
    {
      "constant": true,
      "inputs": [],
      "name": "etherFeed",
      "outputs": [
        {
          "internalType": "address payable",
          "name": "",
          "type": "address"
        }
      ],
      "payable": false,
      "stateMutability": "view",
      "type": "function"
    },
    {
      "constant": false,
      "inputs": [
        {
          "internalType": "address",
          "name": "account",
          "type": "address"
        }
      ],
      "name": "addWhitelistAdmin",
      "outputs": [],
      "payable": false,
      "stateMutability": "nonpayable",
      "type": "function"
    },
    {
      "constant": true,
      "inputs": [
        {
          "internalType": "address",
          "name": "account",
          "type": "address"
        }
      ],
      "name": "isWhitelistAdmin",
      "outputs": [
        {
          "internalType": "bool",
          "name": "",
          "type": "bool"
        }
      ],
      "payable": false,
      "stateMutability": "view",
      "type": "function"
    },
    {
      "inputs": [],
      "payable": false,
      "stateMutability": "nonpayable",
      "type": "constructor"
    },
    {
      "anonymous": false,
      "inputs": [
        {
          "indexed": true,
          "internalType": "address",
          "name": "source",
          "type": "address"
        },
        {
          "indexed": true,
          "internalType": "address",
          "name": "dest",
          "type": "address"
        },
        {
          "indexed": false,
          "internalType": "uint256",
          "name": "amount",
          "type": "uint256"
        },
        {
          "indexed": false,
          "internalType": "uint256",
          "name": "feedAmount",
          "type": "uint256"
        }
      ],
      "name": "BulkSendEth",
      "type": "event"
    },
    {
      "anonymous": false,
      "inputs": [
        {
          "indexed": true,
          "internalType": "address",
          "name": "account",
          "type": "address"
        }
      ],
      "name": "WhitelistAdminAdded",
      "type": "event"
    },
    {
      "anonymous": false,
      "inputs": [
        {
          "indexed": true,
          "internalType": "address",
          "name": "account",
          "type": "address"
        }
      ],
      "name": "WhitelistAdminRemoved",
      "type": "event"
    },
    {
      "constant": false,
      "inputs": [
        {
          "internalType": "address payable",
          "name": "dest",
          "type": "address"
        },
        {
          "internalType": "uint256",
          "name": "destAmount",
          "type": "uint256"
        },
        {
          "internalType": "uint256",
          "name": "feedAmount",
          "type": "uint256"
        }
      ],
      "name": "bulkSendEth",
      "outputs": [],
      "payable": true,
      "stateMutability": "payable",
      "type": "function"
    },
    {
      "constant": false,
      "inputs": [
        {
          "internalType": "address payable",
          "name": "_etherFeed",
          "type": "address"
        }
      ],
      "name": "setEthFeeAddress",
      "outputs": [],
      "payable": false,
      "stateMutability": "nonpayable",
      "type": "function"
    },
    {
      "constant": false,
      "inputs": [
        {
          "internalType": "address payable",
          "name": "_to",
          "type": "address"
        }
      ],
      "name": "destroy",
      "outputs": [],
      "payable": false,
      "stateMutability": "nonpayable",
      "type": "function"
    }
  ],
  "bytecode": "0x608060405234801561001057600080fd5b506100203361006660201b60201c565b33600160006101000a81548173ffffffffffffffffffffffffffffffffffffffff021916908373ffffffffffffffffffffffffffffffffffffffff160217905550610283565b61007e8160006100c460201b61096d1790919060201c565b8073ffffffffffffffffffffffffffffffffffffffff167f22380c05984257a1cb900161c713dd71d39e74820f1aea43bd3f1bdd2096129960405160405180910390a250565b6100d482826101a560201b60201c565b15610147576040517f08c379a000000000000000000000000000000000000000000000000000000000815260040180806020018281038252601f8152602001807f526f6c65733a206163636f756e7420616c72656164792068617320726f6c650081525060200191505060405180910390fd5b60018260000160008373ffffffffffffffffffffffffffffffffffffffff1673ffffffffffffffffffffffffffffffffffffffff16815260200190815260200160002060006101000a81548160ff0219169083151502179055505050565b60008073ffffffffffffffffffffffffffffffffffffffff168273ffffffffffffffffffffffffffffffffffffffff16141561022c576040517f08c379a0000000000000000000000000000000000000000000000000000000008152600401808060200182810382526022815260200180610d926022913960400191505060405180910390fd5b8260000160008373ffffffffffffffffffffffffffffffffffffffff1673ffffffffffffffffffffffffffffffffffffffff16815260200190815260200160002060009054906101000a900460ff16905092915050565b610b00806102926000396000f3fe60806040526004361061006f5760003560e01c80634d55981d1161004e5780634d55981d146101345780637362d9c81461018b578063a5ef340e146101dc578063bb5f747b1461022d5761006f565b8062f55d9d1461007457806309d8a317146100c55780634c5a628c1461011d575b600080fd5b34801561008057600080fd5b506100c36004803603602081101561009757600080fd5b81019080803573ffffffffffffffffffffffffffffffffffffffff169060200190929190505050610296565b005b61011b600480360360608110156100db57600080fd5b81019080803573ffffffffffffffffffffffffffffffffffffffff169060200190929190803590602001909291908035906020019092919050505061030d565b005b34801561012957600080fd5b506101326105c4565b005b34801561014057600080fd5b506101496105cf565b604051808273ffffffffffffffffffffffffffffffffffffffff1673ffffffffffffffffffffffffffffffffffffffff16815260200191505060405180910390f35b34801561019757600080fd5b506101da600480360360208110156101ae57600080fd5b81019080803573ffffffffffffffffffffffffffffffffffffffff1690602001909291905050506105f5565b005b3480156101e857600080fd5b5061022b600480360360208110156101ff57600080fd5b81019080803573ffffffffffffffffffffffffffffffffffffffff16906020019092919050505061065f565b005b34801561023957600080fd5b5061027c6004803603602081101561025057600080fd5b81019080803573ffffffffffffffffffffffffffffffffffffffff169060200190929190505050610701565b604051808215151515815260200191505060405180910390f35b61029f33610701565b6102f4576040517f08c379a0000000000000000000000000000000000000000000000000000000008152600401808060200182810382526040815260200180610a8c6040913960400191505060405180910390fd5b8073ffffffffffffffffffffffffffffffffffffffff16ff5b600073ffffffffffffffffffffffffffffffffffffffff168373ffffffffffffffffffffffffffffffffffffffff1614156103b0576040517f08c379a00000000000000000000000000000000000000000000000000000000081526004018080602001828103825260168152602001807f616464726573732064657374206d75737420657869740000000000000000000081525060200191505060405180910390fd5b60008211610426576040517f08c379a000000000000000000000000000000000000000000000000000000000815260040180806020018281038252601b8152602001807f64657374416d6f756e74206d75737420626520706f736974697665000000000081525060200191505060405180910390fd5b6000811161049c576040517f08c379a00000000000000000000000000000000000000000000000000000000081526004018080602001828103825260198152602001807f5f70616d6f756e74206d75737420626520706f7369746976650000000000000081525060200191505060405180910390fd5b8273ffffffffffffffffffffffffffffffffffffffff166108fc600184029081150290604051600060405180830381858888f193505050501580156104e5573d6000803e3d6000fd5b50600160009054906101000a900473ffffffffffffffffffffffffffffffffffffffff1673ffffffffffffffffffffffffffffffffffffffff166108fc600183029081150290604051600060405180830381858888f19350505050158015610551573d6000803e3d6000fd5b508273ffffffffffffffffffffffffffffffffffffffff163373ffffffffffffffffffffffffffffffffffffffff167fbc15fb78520278ee17cd7d1ae4441b966432f23f5feb02e8c1d6846c91cfe3768484604051808381526020018281526020019250505060405180910390a3505050565b6105cd3361071e565b565b600160009054906101000a900473ffffffffffffffffffffffffffffffffffffffff1681565b6105fe33610701565b610653576040517f08c379a0000000000000000000000000000000000000000000000000000000008152600401808060200182810382526040815260200180610a8c6040913960400191505060405180910390fd5b61065c81610778565b50565b61066833610701565b6106bd576040517f08c379a0000000000000000000000000000000000000000000000000000000008152600401808060200182810382526040815260200180610a8c6040913960400191505060405180910390fd5b80600160006101000a81548173ffffffffffffffffffffffffffffffffffffffff021916908373ffffffffffffffffffffffffffffffffffffffff16021790555050565b60006107178260006107d290919063ffffffff16565b9050919050565b6107328160006108b090919063ffffffff16565b8073ffffffffffffffffffffffffffffffffffffffff167f0a8eb35e5ca14b3d6f28e4abf2f128dbab231a58b56e89beb5d636115001e16560405160405180910390a250565b61078c81600061096d90919063ffffffff16565b8073ffffffffffffffffffffffffffffffffffffffff167f22380c05984257a1cb900161c713dd71d39e74820f1aea43bd3f1bdd2096129960405160405180910390a250565b60008073ffffffffffffffffffffffffffffffffffffffff168273ffffffffffffffffffffffffffffffffffffffff161415610859576040517f08c379a0000000000000000000000000000000000000000000000000000000008152600401808060200182810382526022815260200180610a6a6022913960400191505060405180910390fd5b8260000160008373ffffffffffffffffffffffffffffffffffffffff1673ffffffffffffffffffffffffffffffffffffffff16815260200190815260200160002060009054906101000a900460ff16905092915050565b6108ba82826107d2565b61090f576040517f08c379a0000000000000000000000000000000000000000000000000000000008152600401808060200182810382526021815260200180610a496021913960400191505060405180910390fd5b60008260000160008373ffffffffffffffffffffffffffffffffffffffff1673ffffffffffffffffffffffffffffffffffffffff16815260200190815260200160002060006101000a81548160ff0219169083151502179055505050565b61097782826107d2565b156109ea576040517f08c379a000000000000000000000000000000000000000000000000000000000815260040180806020018281038252601f8152602001807f526f6c65733a206163636f756e7420616c72656164792068617320726f6c650081525060200191505060405180910390fd5b60018260000160008373ffffffffffffffffffffffffffffffffffffffff1673ffffffffffffffffffffffffffffffffffffffff16815260200190815260200160002060006101000a81548160ff021916908315150217905550505056fe526f6c65733a206163636f756e7420646f6573206e6f74206861766520726f6c65526f6c65733a206163636f756e7420697320746865207a65726f206164647265737357686974656c69737441646d696e526f6c653a2063616c6c657220646f6573206e6f742068617665207468652057686974656c69737441646d696e20726f6c65a265627a7a723158207678dc4f9265709303d33a0da51194251d3bc567e5e1b114c3ff9e681d16b4e264736f6c634300050b0032526f6c65733a206163636f756e7420697320746865207a65726f2061646472657373",
  "source": "pragma solidity ^0.5.10;\n\n\nimport \"../node_modules/openzeppelin-solidity/contracts/math/SafeMath.sol\";\nimport \"../node_modules/openzeppelin-solidity/contracts/token/ERC20/SafeERC20.sol\";\nimport \"../node_modules/openzeppelin-solidity/contracts/token/ERC20/IERC20.sol\";\nimport \"../node_modules/openzeppelin-solidity/contracts/access/roles/WhitelistAdminRole.sol\";\n\n\n\ncontract MultisendBase is WhitelistAdminRole {\n    using SafeMath for uint256;\n    using SafeERC20 for IERC20;\n\n    address payable public etherFeed;\n\n    constructor()\n    WhitelistAdminRole()\n    public\n    {\n        etherFeed = msg.sender;\n    }\n\n\n    event BulkSendEth(address indexed source, address indexed dest, uint256 amount, uint256 feedAmount);\n\n    function bulkSendEth(address payable dest,uint256 destAmount,uint256 feedAmount) public payable {\n\n        require(dest != address(0),\"address dest must exit\");\n        require(destAmount > 0, \"destAmount must be positive\");\n        require(feedAmount > 0, \"_pamount must be positive\");\n\n        dest.transfer(destAmount * 1 wei);\n        etherFeed.transfer(feedAmount * 1 wei);\n        emit BulkSendEth(msg.sender,dest,destAmount,feedAmount);\n    }\n\n\n    function setEthFeeAddress(address payable _etherFeed) public onlyWhitelistAdmin {\n        etherFeed = _etherFeed;\n    }\n\n    function destroy (address payable _to) public onlyWhitelistAdmin {\n        selfdestruct(_to);\n    }\n}\n\n",
  "sourcePath": "/home/david.jaramillo/personal/blocksize/solidity/multisend/contracts/MultisendBase.sol",
  "compiler": {
    "name": "solc",
    "version": "0.5.11+commit.c082d0b4.Emscripten.clang"
  },
  "schemaVersion": "3.0.16",
  "updatedAt": "2019-09-19T21:28:11.801Z",
  "devdoc": {
    "methods": {}
  },
  "userdoc": {
    "methods": {}
  }
}