{
  "contractName": "Multisend",
  "abi": [
    {
      "constant": true,
      "inputs": [],
      "name": "tokenSendFeeDenominator",
      "outputs": [
        {
          "internalType": "uint256",
          "name": "",
          "type": "uint256"
        }
      ],
      "payable": false,
      "stateMutability": "view",
      "type": "function"
    },
    {
      "constant": false,
      "inputs": [],
      "name": "renounceWhitelistAdmin",
      "outputs": [],
      "payable": false,
      "stateMutability": "nonpayable",
      "type": "function"
    },
    {
      "constant": true,
      "inputs": [],
      "name": "etherFeed",
      "outputs": [
        {
          "internalType": "address payable",
          "name": "",
          "type": "address"
        }
      ],
      "payable": false,
      "stateMutability": "view",
      "type": "function"
    },
    {
      "constant": true,
      "inputs": [],
      "name": "tokenSendFeeNumerator",
      "outputs": [
        {
          "internalType": "uint256",
          "name": "",
          "type": "uint256"
        }
      ],
      "payable": false,
      "stateMutability": "view",
      "type": "function"
    },
    {
      "constant": true,
      "inputs": [],
      "name": "ethSendFeeDenominator",
      "outputs": [
        {
          "internalType": "uint256",
          "name": "",
          "type": "uint256"
        }
      ],
      "payable": false,
      "stateMutability": "view",
      "type": "function"
    },
    {
      "constant": false,
      "inputs": [
        {
          "internalType": "address",
          "name": "account",
          "type": "address"
        }
      ],
      "name": "addWhitelistAdmin",
      "outputs": [],
      "payable": false,
      "stateMutability": "nonpayable",
      "type": "function"
    },
    {
      "constant": true,
      "inputs": [],
      "name": "ethSendFeeNumerator",
      "outputs": [
        {
          "internalType": "uint256",
          "name": "",
          "type": "uint256"
        }
      ],
      "payable": false,
      "stateMutability": "view",
      "type": "function"
    },
    {
      "constant": true,
      "inputs": [
        {
          "internalType": "address",
          "name": "account",
          "type": "address"
        }
      ],
      "name": "isWhitelistAdmin",
      "outputs": [
        {
          "internalType": "bool",
          "name": "",
          "type": "bool"
        }
      ],
      "payable": false,
      "stateMutability": "view",
      "type": "function"
    },
    {
      "constant": true,
      "inputs": [],
      "name": "tokenFeed",
      "outputs": [
        {
          "internalType": "address",
          "name": "",
          "type": "address"
        }
      ],
      "payable": false,
      "stateMutability": "view",
      "type": "function"
    },
    {
      "inputs": [],
      "payable": false,
      "stateMutability": "nonpayable",
      "type": "constructor"
    },
    {
      "anonymous": false,
      "inputs": [
        {
          "indexed": true,
          "internalType": "address",
          "name": "source",
          "type": "address"
        },
        {
          "indexed": true,
          "internalType": "address",
          "name": "dest",
          "type": "address"
        },
        {
          "indexed": false,
          "internalType": "uint256",
          "name": "amount",
          "type": "uint256"
        }
      ],
      "name": "BulkSendEth",
      "type": "event"
    },
    {
      "anonymous": false,
      "inputs": [
        {
          "indexed": true,
          "internalType": "address",
          "name": "source",
          "type": "address"
        },
        {
          "indexed": false,
          "internalType": "address",
          "name": "dest",
          "type": "address"
        },
        {
          "indexed": false,
          "internalType": "uint256",
          "name": "amount",
          "type": "uint256"
        },
        {
          "indexed": false,
          "internalType": "address",
          "name": "token",
          "type": "address"
        }
      ],
      "name": "BulkSendToken",
      "type": "event"
    },
    {
      "anonymous": false,
      "inputs": [
        {
          "indexed": true,
          "internalType": "address",
          "name": "account",
          "type": "address"
        }
      ],
      "name": "WhitelistAdminAdded",
      "type": "event"
    },
    {
      "anonymous": false,
      "inputs": [
        {
          "indexed": true,
          "internalType": "address",
          "name": "account",
          "type": "address"
        }
      ],
      "name": "WhitelistAdminRemoved",
      "type": "event"
    },
    {
      "constant": true,
      "inputs": [
        {
          "internalType": "uint256",
          "name": "amount",
          "type": "uint256"
        },
        {
          "internalType": "uint256",
          "name": "numerator",
          "type": "uint256"
        },
        {
          "internalType": "uint256",
          "name": "denominator",
          "type": "uint256"
        }
      ],
      "name": "percent",
      "outputs": [
        {
          "internalType": "uint256",
          "name": "pamount",
          "type": "uint256"
        }
      ],
      "payable": false,
      "stateMutability": "pure",
      "type": "function"
    },
    {
      "constant": false,
      "inputs": [
        {
          "internalType": "address payable",
          "name": "dest",
          "type": "address"
        }
      ],
      "name": "bulkSendEth",
      "outputs": [],
      "payable": true,
      "stateMutability": "payable",
      "type": "function"
    },
    {
      "constant": false,
      "inputs": [
        {
          "internalType": "contract IERC20",
          "name": "tokenAddr",
          "type": "address"
        },
        {
          "internalType": "address",
          "name": "dest",
          "type": "address"
        },
        {
          "internalType": "uint256",
          "name": "amount",
          "type": "uint256"
        }
      ],
      "name": "bulkSendToken",
      "outputs": [],
      "payable": false,
      "stateMutability": "nonpayable",
      "type": "function"
    },
    {
      "constant": false,
      "inputs": [
        {
          "internalType": "uint256",
          "name": "_tokenSendFeeNumerator",
          "type": "uint256"
        },
        {
          "internalType": "uint256",
          "name": "_tokenSendFeeDenominator",
          "type": "uint256"
        }
      ],
      "name": "setTokenFee",
      "outputs": [],
      "payable": false,
      "stateMutability": "nonpayable",
      "type": "function"
    },
    {
      "constant": false,
      "inputs": [
        {
          "internalType": "uint256",
          "name": "_ethSendFeeNumerator",
          "type": "uint256"
        },
        {
          "internalType": "uint256",
          "name": "_ethSendFeeDenominator",
          "type": "uint256"
        }
      ],
      "name": "setEthFee",
      "outputs": [],
      "payable": false,
      "stateMutability": "nonpayable",
      "type": "function"
    },
    {
      "constant": false,
      "inputs": [
        {
          "internalType": "address",
          "name": "_tokenFeed",
          "type": "address"
        }
      ],
      "name": "setTokenFeeAddress",
      "outputs": [],
      "payable": false,
      "stateMutability": "nonpayable",
      "type": "function"
    },
    {
      "constant": false,
      "inputs": [
        {
          "internalType": "address payable",
          "name": "_etherFeed",
          "type": "address"
        }
      ],
      "name": "setEthFeeAddress",
      "outputs": [],
      "payable": false,
      "stateMutability": "nonpayable",
      "type": "function"
    },
    {
      "constant": false,
      "inputs": [
        {
          "internalType": "address payable",
          "name": "_to",
          "type": "address"
        }
      ],
      "name": "destroy",
      "outputs": [],
      "payable": false,
      "stateMutability": "nonpayable",
      "type": "function"
    }
  ],
  "bytecode": "0x60806040523480156200001157600080fd5b506200002333620000cb60201b60201c565b33600160006101000a81548173ffffffffffffffffffffffffffffffffffffffff021916908373ffffffffffffffffffffffffffffffffffffffff16021790555033600260006101000a81548173ffffffffffffffffffffffffffffffffffffffff021916908373ffffffffffffffffffffffffffffffffffffffff1602179055506016600381905550606460048190555060166005819055506064600681905550620002f0565b620000e68160006200012c60201b6200164a1790919060201c565b8073ffffffffffffffffffffffffffffffffffffffff167f22380c05984257a1cb900161c713dd71d39e74820f1aea43bd3f1bdd2096129960405160405180910390a250565b6200013e82826200021060201b60201c565b15620001b2576040517f08c379a000000000000000000000000000000000000000000000000000000000815260040180806020018281038252601f8152602001807f526f6c65733a206163636f756e7420616c72656164792068617320726f6c650081525060200191505060405180910390fd5b60018260000160008373ffffffffffffffffffffffffffffffffffffffff1673ffffffffffffffffffffffffffffffffffffffff16815260200190815260200160002060006101000a81548160ff0219169083151502179055505050565b60008073ffffffffffffffffffffffffffffffffffffffff168273ffffffffffffffffffffffffffffffffffffffff16141562000299576040517f08c379a000000000000000000000000000000000000000000000000000000000815260040180806020018281038252602281526020018062001bc06022913960400191505060405180910390fd5b8260000160008373ffffffffffffffffffffffffffffffffffffffff1673ffffffffffffffffffffffffffffffffffffffff16815260200190815260200160002060009054906101000a900460ff16905092915050565b6118c080620003006000396000f3fe6080604052600436106100fb5760003560e01c80637362d9c811610095578063a5fd732c11610064578063a5fd732c14610420578063a82c1ba31461044b578063bb5f747b146104c6578063cf3f654d1461052f578063f8ef782514610573576100fb565b80637362d9c8146102e85780638ddb7c2a14610339578063a462be351461037e578063a5ef340e146103cf576100fb565b80634c5a628c116100d15780634c5a628c146102245780634d55981d1461023b5780636341e0921461029257806369fd4f0f146102bd576100fb565b80622c1a9e14610100578062cbf5b414610163578062f55d9d1461018e5780634a56ab4e146101df575b600080fd5b34801561010c57600080fd5b5061014d6004803603606081101561012357600080fd5b810190808035906020019092919080359060200190929190803590602001909291905050506105ca565b6040518082815260200191505060405180910390f35b34801561016f57600080fd5b50610178610605565b6040518082815260200191505060405180910390f35b34801561019a57600080fd5b506101dd600480360360208110156101b157600080fd5b81019080803573ffffffffffffffffffffffffffffffffffffffff16906020019092919050505061060b565b005b3480156101eb57600080fd5b506102226004803603604081101561020257600080fd5b810190808035906020019092919080359060200190929190505050610682565b005b34801561023057600080fd5b506102396107a4565b005b34801561024757600080fd5b506102506107af565b604051808273ffffffffffffffffffffffffffffffffffffffff1673ffffffffffffffffffffffffffffffffffffffff16815260200191505060405180910390f35b34801561029e57600080fd5b506102a76107d5565b6040518082815260200191505060405180910390f35b3480156102c957600080fd5b506102d26107db565b6040518082815260200191505060405180910390f35b3480156102f457600080fd5b506103376004803603602081101561030b57600080fd5b81019080803573ffffffffffffffffffffffffffffffffffffffff1690602001909291905050506107e1565b005b34801561034557600080fd5b5061037c6004803603604081101561035c57600080fd5b81019080803590602001909291908035906020019092919050505061084b565b005b34801561038a57600080fd5b506103cd600480360360208110156103a157600080fd5b81019080803573ffffffffffffffffffffffffffffffffffffffff16906020019092919050505061096d565b005b3480156103db57600080fd5b5061041e600480360360208110156103f257600080fd5b81019080803573ffffffffffffffffffffffffffffffffffffffff169060200190929190505050610a0f565b005b34801561042c57600080fd5b50610435610ab1565b6040518082815260200191505060405180910390f35b34801561045757600080fd5b506104c46004803603606081101561046e57600080fd5b81019080803573ffffffffffffffffffffffffffffffffffffffff169060200190929190803573ffffffffffffffffffffffffffffffffffffffff16906020019092919080359060200190929190505050610ab7565b005b3480156104d257600080fd5b50610515600480360360208110156104e957600080fd5b81019080803573ffffffffffffffffffffffffffffffffffffffff169060200190929190505050610fe4565b604051808215151515815260200191505060405180910390f35b6105716004803603602081101561054557600080fd5b81019080803573ffffffffffffffffffffffffffffffffffffffff169060200190929190505050611001565b005b34801561057f57600080fd5b50610588611237565b604051808273ffffffffffffffffffffffffffffffffffffffff1673ffffffffffffffffffffffffffffffffffffffff16815260200191505060405180910390f35b6000806105e0848661125d90919063ffffffff16565b905060006105f784836112e390919063ffffffff16565b905080925050509392505050565b60065481565b61061433610fe4565b610669576040517f08c379a00000000000000000000000000000000000000000000000000000000081526004018080602001828103825260408152602001806117da6040913960400191505060405180910390fd5b8073ffffffffffffffffffffffffffffffffffffffff16ff5b61068b33610fe4565b6106e0576040517f08c379a00000000000000000000000000000000000000000000000000000000081526004018080602001828103825260408152602001806117da6040913960400191505060405180910390fd5b60008211610739576040517f08c379a000000000000000000000000000000000000000000000000000000000815260040180806020018281038252602581526020018061181a6025913960400191505060405180910390fd5b60008111610792576040517f08c379a000000000000000000000000000000000000000000000000000000000815260040180806020018281038252602781526020018061183f6027913960400191505060405180910390fd5b81600381905550806004819055505050565b6107ad33611372565b565b600160009054906101000a900473ffffffffffffffffffffffffffffffffffffffff1681565b60055481565b60045481565b6107ea33610fe4565b61083f576040517f08c379a00000000000000000000000000000000000000000000000000000000081526004018080602001828103825260408152602001806117da6040913960400191505060405180910390fd5b610848816113cc565b50565b61085433610fe4565b6108a9576040517f08c379a00000000000000000000000000000000000000000000000000000000081526004018080602001828103825260408152602001806117da6040913960400191505060405180910390fd5b60008211610902576040517f08c379a000000000000000000000000000000000000000000000000000000000815260040180806020018281038252602781526020018061174f6027913960400191505060405180910390fd5b6000811161095b576040517f08c379a00000000000000000000000000000000000000000000000000000000081526004018080602001828103825260298152602001806117266029913960400191505060405180910390fd5b81600581905550806006819055505050565b61097633610fe4565b6109cb576040517f08c379a00000000000000000000000000000000000000000000000000000000081526004018080602001828103825260408152602001806117da6040913960400191505060405180910390fd5b80600260006101000a81548173ffffffffffffffffffffffffffffffffffffffff021916908373ffffffffffffffffffffffffffffffffffffffff16021790555050565b610a1833610fe4565b610a6d576040517f08c379a00000000000000000000000000000000000000000000000000000000081526004018080602001828103825260408152602001806117da6040913960400191505060405180910390fd5b80600160006101000a81548173ffffffffffffffffffffffffffffffffffffffff021916908373ffffffffffffffffffffffffffffffffffffffff16021790555050565b60035481565b60003090508373ffffffffffffffffffffffffffffffffffffffff1663dd62ed3e33836040518363ffffffff1660e01b8152600401808373ffffffffffffffffffffffffffffffffffffffff1673ffffffffffffffffffffffffffffffffffffffff1681526020018273ffffffffffffffffffffffffffffffffffffffff1673ffffffffffffffffffffffffffffffffffffffff1681526020019250505060206040518083038186803b158015610b6d57600080fd5b505afa158015610b81573d6000803e3d6000fd5b505050506040513d6020811015610b9757600080fd5b8101908080519060200190929190505050821115610c00576040517f08c379a00000000000000000000000000000000000000000000000000000000081526004018080602001828103825260268152602001806118666026913960400191505060405180910390fd5b6000610c11836005546006546105ca565b90506000610c28828561142690919063ffffffff16565b905060008111610ca0576040517f08c379a000000000000000000000000000000000000000000000000000000000815260040180806020018281038252601b8152602001807f64657374416d6f756e74206d75737420626520706f736974697665000000000081525060200191505060405180910390fd5b60008211610d16576040517f08c379a00000000000000000000000000000000000000000000000000000000081526004018080602001828103825260198152602001807f5f70616d6f756e74206d75737420626520706f7369746976650000000000000081525060200191505060405180910390fd5b8573ffffffffffffffffffffffffffffffffffffffff166323b872dd3387846040518463ffffffff1660e01b8152600401808473ffffffffffffffffffffffffffffffffffffffff1673ffffffffffffffffffffffffffffffffffffffff1681526020018373ffffffffffffffffffffffffffffffffffffffff1673ffffffffffffffffffffffffffffffffffffffff1681526020018281526020019350505050602060405180830381600087803b158015610dd157600080fd5b505af1158015610de5573d6000803e3d6000fd5b505050506040513d6020811015610dfb57600080fd5b8101908080519060200190929190505050508573ffffffffffffffffffffffffffffffffffffffff166323b872dd33600260009054906101000a900473ffffffffffffffffffffffffffffffffffffffff16856040518463ffffffff1660e01b8152600401808473ffffffffffffffffffffffffffffffffffffffff1673ffffffffffffffffffffffffffffffffffffffff1681526020018373ffffffffffffffffffffffffffffffffffffffff1673ffffffffffffffffffffffffffffffffffffffff1681526020018281526020019350505050602060405180830381600087803b158015610eea57600080fd5b505af1158015610efe573d6000803e3d6000fd5b505050506040513d6020811015610f1457600080fd5b8101908080519060200190929190505050503373ffffffffffffffffffffffffffffffffffffffff167f29d72fd277eecb9cbf9bad5dcc169e25d16d774862bb36fa23e5b738ba25f3f7868389604051808473ffffffffffffffffffffffffffffffffffffffff1673ffffffffffffffffffffffffffffffffffffffff1681526020018381526020018273ffffffffffffffffffffffffffffffffffffffff1673ffffffffffffffffffffffffffffffffffffffff168152602001935050505060405180910390a2505050505050565b6000610ffa8260006114af90919063ffffffff16565b9050919050565b6000611012346003546004546105ca565b90506000611029823461142690919063ffffffff16565b9050600081116110a1576040517f08c379a000000000000000000000000000000000000000000000000000000000815260040180806020018281038252601b8152602001807f64657374416d6f756e74206d75737420626520706f736974697665000000000081525060200191505060405180910390fd5b60008211611117576040517f08c379a00000000000000000000000000000000000000000000000000000000081526004018080602001828103825260198152602001807f5f70616d6f756e74206d75737420626520706f7369746976650000000000000081525060200191505060405180910390fd5b8273ffffffffffffffffffffffffffffffffffffffff166108fc600183029081150290604051600060405180830381858888f19350505050158015611160573d6000803e3d6000fd5b50600160009054906101000a900473ffffffffffffffffffffffffffffffffffffffff1673ffffffffffffffffffffffffffffffffffffffff166108fc600184029081150290604051600060405180830381858888f193505050501580156111cc573d6000803e3d6000fd5b508273ffffffffffffffffffffffffffffffffffffffff163373ffffffffffffffffffffffffffffffffffffffff167faf1950c265345c81cf8454a92351f010abf0ee48f35fd0b79e4dbbe40a82cb4d836040518082815260200191505060405180910390a3505050565b600260009054906101000a900473ffffffffffffffffffffffffffffffffffffffff1681565b60008083141561127057600090506112dd565b600082840290508284828161128157fe5b04146112d8576040517f08c379a00000000000000000000000000000000000000000000000000000000081526004018080602001828103825260218152602001806117976021913960400191505060405180910390fd5b809150505b92915050565b600080821161135a576040517f08c379a000000000000000000000000000000000000000000000000000000000815260040180806020018281038252601a8152602001807f536166654d6174683a206469766973696f6e206279207a65726f00000000000081525060200191505060405180910390fd5b600082848161136557fe5b0490508091505092915050565b61138681600061158d90919063ffffffff16565b8073ffffffffffffffffffffffffffffffffffffffff167f0a8eb35e5ca14b3d6f28e4abf2f128dbab231a58b56e89beb5d636115001e16560405160405180910390a250565b6113e081600061164a90919063ffffffff16565b8073ffffffffffffffffffffffffffffffffffffffff167f22380c05984257a1cb900161c713dd71d39e74820f1aea43bd3f1bdd2096129960405160405180910390a250565b60008282111561149e576040517f08c379a000000000000000000000000000000000000000000000000000000000815260040180806020018281038252601e8152602001807f536166654d6174683a207375627472616374696f6e206f766572666c6f77000081525060200191505060405180910390fd5b600082840390508091505092915050565b60008073ffffffffffffffffffffffffffffffffffffffff168273ffffffffffffffffffffffffffffffffffffffff161415611536576040517f08c379a00000000000000000000000000000000000000000000000000000000081526004018080602001828103825260228152602001806117b86022913960400191505060405180910390fd5b8260000160008373ffffffffffffffffffffffffffffffffffffffff1673ffffffffffffffffffffffffffffffffffffffff16815260200190815260200160002060009054906101000a900460ff16905092915050565b61159782826114af565b6115ec576040517f08c379a00000000000000000000000000000000000000000000000000000000081526004018080602001828103825260218152602001806117766021913960400191505060405180910390fd5b60008260000160008373ffffffffffffffffffffffffffffffffffffffff1673ffffffffffffffffffffffffffffffffffffffff16815260200190815260200160002060006101000a81548160ff0219169083151502179055505050565b61165482826114af565b156116c7576040517f08c379a000000000000000000000000000000000000000000000000000000000815260040180806020018281038252601f8152602001807f526f6c65733a206163636f756e7420616c72656164792068617320726f6c650081525060200191505060405180910390fd5b60018260000160008373ffffffffffffffffffffffffffffffffffffffff1673ffffffffffffffffffffffffffffffffffffffff16815260200190815260200160002060006101000a81548160ff021916908315150217905550505056fe5f746f6b656e53656e6446656544656e6f6d696e61746f72206d75737420626520706f7369746976655f746f6b656e53656e644665654e756d657261746f72206d75737420626520706f736974697665526f6c65733a206163636f756e7420646f6573206e6f74206861766520726f6c65536166654d6174683a206d756c7469706c69636174696f6e206f766572666c6f77526f6c65733a206163636f756e7420697320746865207a65726f206164647265737357686974656c69737441646d696e526f6c653a2063616c6c657220646f6573206e6f742068617665207468652057686974656c69737441646d696e20726f6c655f65746853656e644665654e756d657261746f72206d75737420626520706f7369746976655f65746853656e6446656544656e6f6d696e61746f72206d75737420626520706f7369746976656d756c746973656e64436f6e74726163744164647265737320686173206e6f7420616c6c6f77a265627a7a72315820297f4ba3f270bfc22fa194678270c27063813535146dba2be934f01ce6b2480464736f6c634300050b0032526f6c65733a206163636f756e7420697320746865207a65726f2061646472657373",
  "source": "pragma solidity ^0.5.10;\n\n\nimport \"../node_modules/openzeppelin-solidity/contracts/math/SafeMath.sol\";\nimport \"../node_modules/openzeppelin-solidity/contracts/token/ERC20/SafeERC20.sol\";\nimport \"../node_modules/openzeppelin-solidity/contracts/token/ERC20/IERC20.sol\";\nimport \"../node_modules/openzeppelin-solidity/contracts/access/roles/WhitelistAdminRole.sol\";\n\n\n\ncontract Multisend is WhitelistAdminRole {\n    using SafeMath for uint256;\n    using SafeERC20 for IERC20;\n\n    address payable public etherFeed;\n    address public tokenFeed;\n\n    uint256 public ethSendFeeNumerator;\n    uint256 public ethSendFeeDenominator;\n\n    uint256 public tokenSendFeeNumerator;\n    uint256 public tokenSendFeeDenominator;\n\n\n\n\n\n    constructor()\n    WhitelistAdminRole()\n    public\n    {\n        etherFeed = msg.sender;\n        tokenFeed = msg.sender;\n        ethSendFeeNumerator = 22;\n        ethSendFeeDenominator = 100;\n        tokenSendFeeNumerator = 22;\n        tokenSendFeeDenominator = 100;\n    }\n\n\n    event BulkSendEth(address indexed source, address indexed dest, uint256 amount);\n    event BulkSendToken(address indexed source, address dest,uint256 amount,address token);\n\n    function percent( uint256 amount, uint256 numerator, uint256 denominator) public pure returns(uint256 pamount) {\n\n                // caution, check safe-to-multiply here\n                uint256 _preamount = amount.mul(numerator);\n                // with rounding of last digit\n                uint256 _pamount = _preamount.div(denominator);\n                return  _pamount;\n    }\n\n    function bulkSendEth(address payable dest) public payable {\n\n        uint256 _pamount = percent(msg.value,ethSendFeeNumerator,ethSendFeeDenominator);\n        uint256 _destAmount = msg.value.sub(_pamount);\n        require(_destAmount > 0, \"destAmount must be positive\");\n        require(_pamount > 0, \"_pamount must be positive\");\n\n        dest.transfer(_destAmount * 1 wei);\n        etherFeed.transfer(_pamount * 1 wei);\n        emit BulkSendEth(msg.sender,dest,_destAmount);\n    }\n\n    function bulkSendToken(IERC20 tokenAddr, address dest, uint256 amount) public {\n        address multisendContractAddress = address(this);\n        require(amount <= tokenAddr.allowance(msg.sender, multisendContractAddress),\"multisendContractAddress has not allow\");\n        uint256 _pamount = percent(amount,tokenSendFeeNumerator, tokenSendFeeDenominator);\n        uint256 _destAmount = amount.sub(_pamount);\n        require(_destAmount > 0, \"destAmount must be positive\");\n        require(_pamount > 0, \"_pamount must be positive\");\n\n        tokenAddr.transferFrom(msg.sender, dest, _destAmount);\n        tokenAddr.transferFrom(msg.sender, tokenFeed, _pamount);\n        emit BulkSendToken(msg.sender,dest,_destAmount,address(tokenAddr));\n    }\n\n\n\n\n    function setTokenFee(uint256 _tokenSendFeeNumerator,uint256 _tokenSendFeeDenominator) public onlyWhitelistAdmin{\n        require(_tokenSendFeeNumerator > 0, \"_tokenSendFeeNumerator must be positive\");\n        require(_tokenSendFeeDenominator > 0, \"_tokenSendFeeDenominator must be positive\");\n        tokenSendFeeNumerator = _tokenSendFeeNumerator;\n        tokenSendFeeDenominator = _tokenSendFeeDenominator;\n    }\n\n\n    function setEthFee(uint256 _ethSendFeeNumerator, uint256 _ethSendFeeDenominator) public onlyWhitelistAdmin {\n        require(_ethSendFeeNumerator > 0, \"_ethSendFeeNumerator must be positive\");\n        require(_ethSendFeeDenominator > 0, \"_ethSendFeeDenominator must be positive\");\n        ethSendFeeNumerator = _ethSendFeeNumerator;\n        ethSendFeeDenominator = _ethSendFeeDenominator;\n    }\n\n    function setTokenFeeAddress(address _tokenFeed) public onlyWhitelistAdmin{\n        tokenFeed = _tokenFeed;\n    }\n\n    function setEthFeeAddress(address payable _etherFeed) public onlyWhitelistAdmin {\n        etherFeed = _etherFeed;\n    }\n\n    function destroy (address payable _to) public onlyWhitelistAdmin {\n        selfdestruct(_to);\n    }\n}\n\n",
  "sourcePath": "/home/david.jaramillo/personal/blocksize/solidity/multisend/contracts/Multisend.sol",
  "compiler": {
    "name": "solc",
    "version": "0.5.11+commit.c082d0b4.Emscripten.clang"
  },
  "schemaVersion": "3.0.16",
  "updatedAt": "2019-09-19T17:04:33.719Z",
  "devdoc": {
    "methods": {}
  },
  "userdoc": {
    "methods": {}
  }
}