{
  "contractName": "MultisendBase2",
  "abi": [
    {
      "anonymous": false,
      "inputs": [
        {
          "indexed": true,
          "internalType": "address",
          "name": "source",
          "type": "address"
        },
        {
          "indexed": true,
          "internalType": "address",
          "name": "dest",
          "type": "address"
        },
        {
          "indexed": false,
          "internalType": "address",
          "name": "etherFee",
          "type": "address"
        },
        {
          "indexed": false,
          "internalType": "uint256",
          "name": "amount",
          "type": "uint256"
        },
        {
          "indexed": false,
          "internalType": "uint256",
          "name": "feeAmount",
          "type": "uint256"
        }
      ],
      "name": "BulkSendEth",
      "type": "event"
    },
    {
      "constant": false,
      "inputs": [
        {
          "internalType": "address payable",
          "name": "dest",
          "type": "address"
        },
        {
          "internalType": "address payable",
          "name": "etherFee",
          "type": "address"
        },
        {
          "internalType": "uint256",
          "name": "destAmount",
          "type": "uint256"
        },
        {
          "internalType": "uint256",
          "name": "feeAmount",
          "type": "uint256"
        }
      ],
      "name": "bulkSendEth",
      "outputs": [],
      "payable": true,
      "stateMutability": "payable",
      "type": "function"
    }
  ],
  "bytecode": "0x608060405234801561001057600080fd5b5061039a806100206000396000f3fe60806040526004361061001e5760003560e01c806398f427a514610023575b600080fd5b6100996004803603608081101561003957600080fd5b81019080803573ffffffffffffffffffffffffffffffffffffffff169060200190929190803573ffffffffffffffffffffffffffffffffffffffff169060200190929190803590602001909291908035906020019092919050505061009b565b005b600073ffffffffffffffffffffffffffffffffffffffff168473ffffffffffffffffffffffffffffffffffffffff16141561013e576040517f08c379a00000000000000000000000000000000000000000000000000000000081526004018080602001828103825260168152602001807f616464726573732064657374206d75737420657869740000000000000000000081525060200191505060405180910390fd5b600082116101b4576040517f08c379a000000000000000000000000000000000000000000000000000000000815260040180806020018281038252601b8152602001807f64657374416d6f756e74206d75737420626520706f736974697665000000000081525060200191505060405180910390fd5b6000811161022a576040517f08c379a00000000000000000000000000000000000000000000000000000000081526004018080602001828103825260198152602001807f5f70616d6f756e74206d75737420626520706f7369746976650000000000000081525060200191505060405180910390fd5b8373ffffffffffffffffffffffffffffffffffffffff166108fc600184029081150290604051600060405180830381858888f19350505050158015610273573d6000803e3d6000fd5b508273ffffffffffffffffffffffffffffffffffffffff166108fc600183029081150290604051600060405180830381858888f193505050501580156102bd573d6000803e3d6000fd5b508373ffffffffffffffffffffffffffffffffffffffff163373ffffffffffffffffffffffffffffffffffffffff167f727d2dd608615cb71b532e0e7e8cba948ee732a3c56dc59a7f69d4040c470aae858585604051808473ffffffffffffffffffffffffffffffffffffffff1673ffffffffffffffffffffffffffffffffffffffff168152602001838152602001828152602001935050505060405180910390a35050505056fea265627a7a72315820fa82ed8ab9b6f3b31c5f9274b892329050a751f264169342eac5be261aa8730964736f6c634300050b0032",
  "source": "pragma solidity ^0.5.10;\n\n\nimport \"../node_modules/openzeppelin-solidity/contracts/math/SafeMath.sol\";\n\n\n\n\n\ncontract MultisendBase2 {\n    using SafeMath for uint256;\n\n\n\n\n\n\n\n    event BulkSendEth(address indexed source, address indexed dest,address etherFee, uint256 amount, uint256 feeAmount);\n\n    function bulkSendEth(address payable dest,address payable etherFee,uint256 destAmount,uint256 feeAmount) public payable {\n\n        require(dest != address(0),\"address dest must exit\");\n        require(destAmount > 0, \"destAmount must be positive\");\n        require(feeAmount > 0, \"_pamount must be positive\");\n\n        dest.transfer(destAmount * 1 wei);\n        etherFee.transfer(feeAmount * 1 wei);\n        emit BulkSendEth(msg.sender,dest,etherFee,destAmount,feeAmount);\n    }\n\n\n\n\n\n}\n\n",
  "sourcePath": "/home/david.jaramillo/personal/blocksize/solidity/multisend/contracts/MultisendBase2.sol",
  "compiler": {
    "name": "solc",
    "version": "0.5.11+commit.c082d0b4.Emscripten.clang"
  },
  "schemaVersion": "3.0.16",
  "updatedAt": "2019-10-09T00:42:12.829Z",
  "devdoc": {
    "methods": {}
  },
  "userdoc": {
    "methods": {}
  }
}